:100000000C94E1030C94FE030C94FE030C94FE0389
:100010000C948F300C94FE030C94FE030C94FE039E
:100020000C94FE030C94FE030C94FE030C94801DB0
:100030000C94FE030C94FE030C94FE030C94FE033C
:100040000C944D160C94FE030C944C130C94071353
:100050000C94FE030C94FE030C94FE030C94FE031C
:100060000C94FE030C94FE03522159215C215F2164
:1000700064216E217A21EF21EF21EF218421872154
:1000800090219921EF21EF21EF21EF21EF21EF21A5
:10009000A321B121BF21C921CC21D521DE21E3211A
:1000A000084AD73B3BCE016E84BCBFFDC12F3D6CDF
:1000B00074319ABD56833DDA3D00C77F11BED9E445
:1000C000BB4C3E916BAAAABE000000803F05A84C25
:1000D000CDB2D44EB93836A9020C50B991868808F1
:1000E0003CA6AAAA2ABE000000803F3E0D0A002CB2
:1000F00052583A002C4275663A002C002C57506F2B
:10010000733A002C002C4D506F733A003C446F6FD3
:1001100072003C436865636B003C416C61726D002A
:100120003C486F6D65003C486F6C64003C52756ED6
:10013000003C49646C65005D0D0A005B302E396936
:10014000204D61784E4331302E5061727469616C7C
:100150002032303135303332395F4D61784E433A99
:10016000000D0A003D00244E005D0D0A00205300E2
:10017000204600205400204D3800204D3900204DED
:100180003500204D3400204D3300204D3200204DED
:100190003100204D300020473934002047393300EA
:1001A00020473931002047393000204732300020C5
:1001B000473231002047313900204731380020478D
:1001C0003137002047004733382E0047383000478A
:1001D00033004732004731004730005B005D0D0AB5
:1001E000005B544C4F3A005D0D0A002C005B473910
:1001F000323A005D0D0A002C003A003330003238EC
:10020000005B47005D0D0A003A002C005B50524233
:100210003A00290D0A00206D6178207472617665BC
:100220006C2C206D6D0020616363656C2C206D6DFE
:100230002F7365635E3200206D6178207261746592
:100240002C206D6D2F6D696E002C20737465702FDE
:100250006D6D007A00790078002028003D002400B0
:100260002028686F6D696E672070756C6C2D6F66E5
:10027000662C206D6D290D0A002028686F6D696E4F
:1002800067206465626F756E63652C206D736563AE
:10029000290D0A2432373D002028686F6D696E678A
:1002A000207365656B2C206D6D2F6D696E290D0AAD
:1002B0002432363D002028686F6D696E67206665C0
:1002C00065642C206D6D2F6D696E290D0A24323501
:1002D0003D00290D0A2432343D002028686F6D69E5
:1002E0006E672064697220696E76657274206D6134
:1002F000736B3A002028686F6D696E6720637963BD
:100300006C652C20626F6F6C290D0A2432333D001E
:10031000202868617264206C696D6974732C206296
:100320006F6F6C290D0A2432323D002028736F66EE
:1003300074206C696D6974732C20626F6F6C290D69
:100340000A2432313D0020287265706F7274206972
:100350006E636865732C20626F6F6C290D0A2432FE
:10036000303D00202861726320746F6C6572616E8D
:1003700063652C206D6D290D0A2431333D00202842
:100380006A756E6374696F6E2064657669617469FD
:100390006F6E2C206D6D290D0A2431323D00290D20
:1003A0000A2431313D002028737461747573207202
:1003B00065706F7274206D61736B3A0020287072E3
:1003C0006F62652070696E20696E766572742C208C
:1003D000626F6F6C290D0A2431303D0020286C6952
:1003E0006D69742070696E7320696E766572742C05
:1003F00020626F6F6C290D0A24363D00202873742B
:10040000657020656E61626C6520696E76657274D8
:100410002C20626F6F6C290D0A24353D00290D0ACE
:1004200024343D00202864697220706F7274206942
:100430006E76657274206D61736B3A00290D0A2423
:10044000333D0020287374657020706F72742069CA
:100450006E76657274206D61736B3A002028737438
:1004600065702069646C652064656C61792C206D11
:10047000736563290D0A24323D002028737465706A
:100480002070756C73652C2075736563290D0A24C3
:10049000313D0024303D00242420287669657720F2
:1004A0004772626C2073657474696E6773290D0AF4
:1004B0002423202876696577202320706172616D7E
:1004C0006574657273290D0A24472028766965775B
:1004D00020706172736572207374617465290D0AEE
:1004E0002449202876696577206275696C642069E3
:1004F0006E666F290D0A244E202876696577207371
:1005000074617274757020626C6F636B73290D0A6D
:1005100024783D76616C7565202873617665204787
:1005200072626C2073657474696E67290D0A244EBB
:10053000783D6C696E6520287361766520737461FF
:100540007274757020626C6F636B290D0A244320EE
:1005500028636865636B2067636F6465206D6F64F3
:1005600065290D0A245820286B696C6C20616C6128
:10057000726D206C6F636B290D0A244820287275F8
:100580006E20686F6D696E67206379636C65290DF5
:100590000A7E20286379636C652073746172742904
:1005A0000D0A2120286665656420686F6C64290D3A
:1005B0000A3F202863757272656E742073746174CB
:1005C0007573290D0A6374726C2D78202872657317
:1005D0006574204772626C290D0A000D0A47726229
:1005E0006C20302E3969204D61784E433130205BCC
:1005F00027242720666F722068656C705D0D0A00E5
:100600005D0D0A00436865636B20446F6F720044A0
:10061000697361626C656400456E61626C6564005B
:1006200043617574696F6E3A20556E6C6F636B65CC
:100630006400272448277C2724582720746F2075BE
:100640006E6C6F636B00526573657420746F20630A
:100650006F6E74696E7565005B000D0A00486F6D02
:10066000696E67206661696C0050726F6265206612
:1006700061696C0041626F727420647572696E67A3
:10068000206379636C6500536F6674206C696D69D3
:10069000740048617264206C696D697400414C415A
:1006A000524D3A20000D0A00496E76616C69642053
:1006B00067636F64652049443A00556E64656669F6
:1006C0006E65642066656564207261746500556EB0
:1006D000737570706F7274656420636F6D6D616E99
:1006E00064004D6F64616C2067726F75702076696D
:1006F0006F6C6174696F6E004C696E65206F766512
:1007000072666C6F7700486F6D696E67206E6F74EC
:1007100020656E61626C656400416C61726D206C75
:100720006F636B004E6F742069646C6500454550C3
:10073000524F4D2072656164206661696C2E2055B0
:1007400073696E672064656661756C7473005661C9
:100750006C7565203C2033207573656300536574A8
:1007600074696E672064697361626C6564005661C8
:100770006C7565203C203000496E76616C696420A0
:1007800073746174656D656E7400426164206E758A
:100790006D62657220666F726D6174004578706578
:1007A0006374656420636F6D6D616E64206C657445
:1007B000746572006572726F723A20006F6B0D0A79
:1007C000000011241FBECFEFD8E0DEBFCDBF11E087
:1007D000A0E0B1E0E8E2FDE602C005900D92A03095
:1007E000B107D9F716E0A0E0B1E001C01D92A33D2A
:1007F000B107E1F70E9400040C9492360C940000BB
:100800000E94D4120E94EF220E9458160E942D309E
:1008100080E2EDE2F5E0DF011D928A95E9F781E0E3
:1008200080932D0578948091C20684FF03C081E0F7
:1008300080932E050E9447130E9497120E94AB12CC
:100840000E94AF120E9447290E94042B0E944B284D
:100850000E945C1D0E94A9230E94901210922D05F7
:10086000109230051092310510922F050E94FE144F
:10087000E1CF8091300584FD27C08FB7F894909127
:1008800030059061909330058FBF0E94AC120E949A
:10089000B21290912E05892F8C7021F480912F0532
:1008A000813091F4943031F49FB7F8948091310500
:1008B000806205C09FB7F89480913105886080936D
:1008C00031059FBF0E943E1D08950E94482984E083
:1008D0000E94492983E00E9449290E94B613809111
:1008E0002D05882321F40E9490120E944729089523
:1008F000EF92FF920F931F93CF93DF937B018C01B5
:1009000080912E05823009F447C0C801B70120E06C
:1009100030E040EA51E40E9477350E9416340E948C
:10092000AD33EB010E94E714C801B70120E030E0CD
:100930004AE754E40E9477357B018C0182E390E022
:10094000C89FB001C99F700DD89F700D112480E021
:1009500090E00E94D9339B01AC01C801B7010E940D
:100960005F320E9416340E94AD33DC01CB010E943D
:10097000142900E911E00EC00E94B61380912D05E4
:10098000882351F484EF91E0F8013197F1F7019752
:10099000D9F72197209781F7DF91CF911F910F9180
:1009A000FF90EF900895DF92EF92FF920F931F93C5
:1009B000CF93DF93EC017A018B01D22E8091C20696
:1009C00085FF03C0CE010E944A2980912E05823006
:1009D00099F00E94B61380912D05882369F40E9436
:1009E0009F23882319F00E94AD13F3CFCE01B801E5
:1009F000A7012D2D0E942F25DF91CF911F910F91DF
:100A0000FF90EF90DF900895AF92BF92CF92DF9268
:100A1000EF920F931F93CF93DF93EC015A016B0179
:100A2000122F80912E05823009F466C00E94E714CF
:100A300010924C05802F0E94072B0E941A2B8823AE
:100A400051F09FB7F8948091310580618093310512
:100A50009FBF0E94B61380912D05882309F04CC0DA
:100A6000CE01B601A501212F0E94D30481E080931D
:100A70003F059FB7F89480913005826080933005E0
:100A80009FBF0E94B61380912D058823A9F5809100
:100A90002E058823B1F780913F058130A9F4EE201F
:100AA00051F0E0E4F5E0DF011E978CE00D9001923B
:100AB0008150E1F70CC09FB7F894809131058061B7
:100AC000809331059FBF03C081E080934C05109255
:100AD0003F050E94B61380912D05882369F40E947A
:100AE0005C1D0E944B280E94A923CE0162E375E0A1
:100AF0000E945C300E94C42DDF91CF911F910F9115
:100B0000EF90DF90CF90BF90AF9008952F923F92DB
:100B10004F925F926F927F928F929F92AF92BF920D
:100B2000CF92DF92EF92FF920F931F93DF93CF93B9
:100B3000CDB7DEB7EF970FB6F894DEBF0FBECDBFCF
:100B40009CAB8BAB7EAB6DAB3A010FAB18AF29AF53
:100B50003AAFCBAEDCAEEDAEFEAEAFAE9924880CB4
:100B6000991C880C991C880D991D9AAB89AB9A0128
:100B7000280D391D38AB2FA7D901AD90BD90CD9070
:100B8000DC90C601B501E9A9FAA920813181428131
:100B900053810E9460326DA37EA38FA398A76596B0
:100BA0006FAD6597462E5524440C551C440C551CBE
:100BB0002BA93CA9240D351D3EA72DA7C301840DEB
:100BC000951D9CA78BA7DC01ED90FD900D911C91CC
:100BD000C801B701F90120813181428153810E940E
:100BE000603269A37AA38BA39CA3D601C501B05838
:100BF0008D8F9E8FAF8FB8A3D801C701B058898F52
:100C00009A8FAB8FBC8FADA9BEA98A0E9B1EF40133
:100C100060817181828193812DA13EA14FA158A550
:100C20000E945F323B014C012DA93EA9420E531E8A
:100C3000D2016D917D918D919C9129A13AA14BA1F9
:100C40005CA10E945F325B016C016D8D7E8D8F8D8A
:100C500098A1A60195010E9477357B018C01698DD1
:100C60007A8D8B8D9C8DA40193010E9477359B0119
:100C7000AC01C801B7010E945F321B012C016D8DD0
:100C80007E8D8F8D98A1A40193010E9477357B0101
:100C90008C01698D7A8D8B8D9C8DA60195010E94AA
:100CA00077359B01AC01C801B7010E9460329B01FE
:100CB000AC01C201B1010E94D3325B016C016796A5
:100CC0008FAD6797882399F0C601B5012DEB37E307
:100CD00046E055EB0E943C358823ECF0C601B50197
:100CE0002BED3FE049EC50E40E945F3212C0C60198
:100CF000B5012DEB37E346E055E30E943933181672
:100D000054F0C601B5012BED3FE049EC50E40E94E0
:100D100060325B016C01E090BE06F090BF0600916E
:100D2000C0061091C1066FA978AD89AD9AAD9B013F
:100D3000AC010E946032A80197010E945F329B01C2
:100D4000AC01C801B7010E9477350E9404367B01CF
:100D50008C01C601B50120E030E040E05FE30E9475
:100D600077352FA938AD49AD5AAD0E9477359F77B9
:100D7000A80197010E9440330E9416340E94AD33AF
:100D8000788F6F8B6115710509F487C1BFADBB23E7
:100D900081F080E090E00E94D9339B01AC016BAD03
:100DA0007CAD8DAD9EAD0E9477356BAF7CAF8DAFC6
:100DB0009EAF2F89388DB90180E090E00E94D93331
:100DC0007B018C01C601B501A80197010E94403347
:100DD0006B8B7C8B8D8B9E8B6696EFAD6697F0E070
:100DE000EE0FFF1FEE0FFF1F8BA99CA98E0F9F1FF9
:100DF0009AA789A7ADA9BEA9EA0FFB1F60817181DF
:100E000082819381E9A5FAA52081318142815381B4
:100E10000E945F32A80197010E9440336F87788B50
:100E2000898B9A8B6B897C898D899E899B01AC010A
:100E30000E9477359B01AC0160E070E080E090E4B7
:100E40000E945F325B016C016B897C898D899E8970
:100E50002BEA3AEA4AE25EE30E9477357B018C0195
:100E6000C601B50120E030E040E850E40E94603265
:100E70009B01AC01C801B7010E9477356B877C8765
:100E80008D879E87C601B50120E030E040E05FE33A
:100E90000E94773569837A838B839C8321E030E0DD
:100EA0003E832D839924F1C03BE0391508F446C0F8
:100EB0006D8D7E8D8F8D98A12B853C854D855E85B2
:100EC0000E9477357B018C01698D7A8D8B8D9C8D8D
:100ED00029813A814B815C810E9477359B01AC016D
:100EE000C801B7010E9460327B018C016D8D7E8D3F
:100EF0008F8D98A129813A814B815C810E94773541
:100F00005B016C01698D7A8D8B8D9C8D2B853C8569
:100F10004D855E850E9477359B01AC01C601B50108
:100F20000E945F326D8F7E8F8F8F98A39394C7013D
:100F3000D801898F9A8FAB8FBC8F61C0AD81BE8184
:100F4000BD0180E090E00E94D9332B893C894D8916
:100F50005E890E9477357B018C01C8010E943D3378
:100F60006F83788789879A87B701C8010E94FA350D
:100F70003B014C01EFA5F8A9E080F18002811381CB
:100F800017FB109517F91095ABA5BCA52D903D90BA
:100F90004D905C90C801B7012F81388549855A85ED
:100FA0000E9477355B016C01C201B101A40193017C
:100FB0000E9477359B01AC01C601B5010E946032E9
:100FC0006D8F7E8F8F8F98A3C801B701A401930105
:100FD0000E9477357B018C01C201B1012F813885D8
:100FE00049855A850E9477359B01AC01C801B7013C
:100FF0000E945F32698F7A8F8B8F9C8F99246DA1AD
:101000007EA18FA198A52D8D3E8D4F8D58A10E9458
:101010006032E9A9FAA9608371838283938369A10D
:101020007AA18BA19CA1298D3A8D4B8D5C8D0E945C
:101030006032ADA5BEA56D937D938D939C93139760
:10104000E9A5FAA560817181828193812F85388914
:1010500049895A890E946032A9A5BAA56D937D93EA
:101060008D939C9313978BA99CA94BAD5CAD6DADF3
:101070007EAD2FAD0E94D30480912D058823B1F45D
:10108000ED81FE813196FE83ED832D813E818F8936
:10109000988D2817390708F407CF8DA99EA94BAD65
:1010A0005CAD6DAD7EAD2FAD0E94D304EF960FB653
:1010B000F894DEBF0FBECDBFCF91DF911F910F918E
:1010C000FF90EF90DF90CF90BF90AF909F908F9068
:1010D0007F906F905F904F903F902F9008952F9248
:1010E0003F924F925F926F927F928F929F92AF92B8
:1010F000BF92CF92DF92EF92FF920F931F93DF93F5
:10110000CF93CDB7DEB7A8970FB6F894DEBF0FBE6A
:10111000CDBF1C01ECE8F5E089E3DF011D928A9563
:10112000E9F73196ADE4B5E08AE00D900192815087
:10113000E1F71982AA24BB2477241CA266241F8EFF
:101140001E8E61E0462E512C9924939452E0852EF8
:10115000A6C2802F81548A3118F081E00C9471125C
:101160009F5F9983C101BE016F5F7F4FAE014E5FEC
:101170005F4F0E945C28882319F482E00C9471125E
:10118000CA80DB80EC80FD80C701B6010E94453635
:101190000E94AD33162F70E0882777FD8095982F39
:1011A0000E94DB339B01AC01C701B6010E945F3294
:1011B00020E030E048EC52E40E9477350E94DA35B6
:1011C0000E94AD339B01073421F00D3409F08DC12D
:1011D00041C1183209F446C0193200F5143170F4D7
:1011E000113108F0E2C0143009F448C0143008F49A
:1011F00094C01A3011F00C94601236C01C31A1F169
:101200001D3128F4163110F00C946012FBC01E3111
:1012100059F1163211F00C9460127FC0103509F4A8
:1012200083C0113588F4153349F1163340F41B326D
:1012300009F4F1C0113311F00C946012ECC01C33AE
:1012400010F00C946012FEC01C3571F01D3528F4AE
:101250001A3510F40C946012B8C01F3510F00C94BD
:101260006012C7C087E0F2C02115310539F4BCA176
:10127000BB2311F00C945E12E1E0ECA31C31A9F049
:101280001D3128F4143051F01A3069F40AC01533B6
:1012900071F11C3581F11E3131F418C090928C052A
:1012A00002C080928C0580E0D1C02115310531F05B
:1012B0002A30310511F00C94601204C0F3E0F09371
:1012C0008C0529C024E020938C0525C0211531050B
:1012D00031F02A30310511F00C94601204C085E021
:1012E00080938C0518C096E090938C0514C0A7E0FD
:1012F000A0938C05D8CF2115310531F02A30310566
:1013000011F00C94601204C0B8E0B0938C0503C0D7
:10131000E9E0E0938C0580E0D8C0FCA1FF2311F048
:101320000C945E1282E08CA3123089F0133028F402
:10133000112351F0113069F40AC0163261F01035F2
:1013400081F1133031F403C010928D0502C0109367
:101350008D0581E07BC02E313105B1F02F31310593
:1013600030F42431310511F00C94601209C0283298
:10137000310571F02233310511F00C9460120CC06C
:1013800094E090938D050BC0A5E0A0938D0507C058
:10139000B6E0B0938D0503C0E7E0E0938D0581E0F2
:1013A00094C0F8E0F0938D05D4CF123139F01331A9
:1013B00049F0113129F41092910502C090929105E3
:1013C00082E044C080929105FBCF6115710551F414
:1013D0001A3521F4109290050C948D12909290057C
:1013E0000C948D126A30710511F40C948A120C94CD
:1013F00060121D3519F490928E0502C010928E0570
:1014000085E024C0143119F490928F0502C0109227
:101410008F0586E01BC08CA1882311F00C945E120E
:10142000113329F41092920593E09CA309C02A304D
:10143000310511F00C94601290929205A3E0ACA3D8
:1014400088E043C016531093930589E0232BE9F1FC
:101450000C946212672B11F00C946212163018F47F
:101460001330C0F40AC0183010F40C9460121A3013
:1014700008F11E3111F00C946012123041F01E314F
:1014800031F0112311F4909294058AE01EC08092ED
:101490009405FBCF143039F0153041F0133041F48E
:1014A0009092960505C08092960502C0109296050E
:1014B0008BE00BC0183019F0193031F403C0809262
:1014C000950502C0109295058CE0920102C0220F92
:1014D000331F8A95E2F7C9018A219B21892B11F0DC
:1014E0000C946412A22AB32ADAC0003509F46CC045
:1014F00001359CF40A34F1F10B3434F4063421F153
:10150000093409F0DDC72AC00C3409F44BC00C348F
:10151000ECF10E3409F0D4C749C0043599F0053513
:101520003CF4023509F45AC0033509F0C9C760C05C
:10153000093509F473C00A3509F47CC0083509F08F
:10154000BFC760C029E081C0C0929705D0929805BE
:10155000E0929905F0929A0520E077C0C0929B0531
:10156000D0929C05E0929D05F0929E05B1E06B2A19
:1015700021E06BC0C0929F05D092A005E092A1052A
:10158000F092A205E2E06E2A22E05FC0C092A305BD
:10159000D092A405E092A505F092A605F4E06F2A8A
:1015A00023E053C01093A70524E04FC0C701B60144
:1015B0000E94A8336093A8057093A9058093AA059B
:1015C0009093AB0525E041C0C092AC05D092AD052B
:1015D000E092AE05F092AF0526E037C0C092B005AC
:1015E000D092B105E092B205F092B30527E02DC08C
:1015F000C092B405D092B505E092B605F092B70559
:1016000028E023C0C092B905D092BA05E092BB058C
:10161000F092BC0521E0722A2AE017C0C092BD05F5
:10162000D092BE05E092BF05F092C00582E0782A14
:101630002BE00BC0C092C105D092C205E092C30559
:10164000F092C40594E0792A2CE08201022E02C0B7
:10165000000F111F0A94E2F78E8D9F8D8023912336
:10166000892B11F089E13DC781E693E002C0959591
:1016700087952A95E2F780FF0CC0C701B60120E0EC
:1016800030E040E050E00E943933882314F484E0D5
:1016900028C7AE8DBF8DA02BB12BBF8FAE8F998188
:1016A000F101E90FF11D0081002309F052CD7720EF
:1016B00029F0BCA1BB2311F4E2E0ECA3FE8DF5FF01
:1016C0000FC08091A8059091A905A091AA05B0919D
:1016D000AB0580589649A849B04014F08BE101C78A
:1016E00080918E05813039F48CA18230B1F59E8DC8
:1016F00090FD33C0EBC680914E05882371F5AE8D09
:10170000A0FF1BC080918F05813039F5609197054E
:10171000709198058091990590919A0523E333E3A0
:101720004BEC51E40E9477356093970570939805D0
:101730008093990590939A0510C080915B059091D4
:101740005C05A0915D05B0915E058093970590932F
:101750009805A0939905B0939A05EE8DFF8DF0FD45
:1017600010C08091570590915805A0915905B091EE
:101770005A058093B4059093B505A093B605B09330
:10178000B70580918C05813041F4FE8DF6FFA0C62F
:101790008E8D9F8D8F7B9F8F8E8F8091910588235B
:1017A00041F0813061F492E09BA31AA2A1E0A9A3C9
:1017B0000BC01BA2B1E0BAA3E2E0E9A305C0F1E0CF
:1017C000FBA322E02AA319A280918F05813051F555
:1017D00049EBE42E45E0F42E00E010E0C72CDD24B8
:1017E000C601002E02C0959587950A94E2F780FF06
:1017F00010C0D7016D917D918D919C9123E333E3CE
:101800004BEC51E40E947735F7016083718382834A
:1018100093830F5F1F4F84E090E0E80EF91E0330C2
:101820001105F1F69CA1933049F480919205813025
:1018300029F4A4E07A1611F085E253C6DE0116966B
:10184000E0E7F5E08CE001900D928150E1F7B1FE08
:1018500012C090919305973008F03CC680915305D3
:10186000891749F0892FBE016A5F7F4F0E94C42209
:10187000882309F431C680918C05823021F08830AC
:1018800009F0FDC09AC0772009F428C68E8D9F8D7F
:1018900080759070892B09F41BC66091AC0570911E
:1018A000AD058091AE059091AF050E9445360E942E
:1018B000AD33673008F00EC62091A705243131F012
:1018C000223009F0FDC5BE8DB7FDFAC5662319F0BB
:1018D000615068A303C0E0919305E8A38E010E5EFA
:1018E0001F4F88A1B8010E94C422882309F4F4C5BF
:1018F000780139EB832E35E0932E24E6C22E25E0C5
:10190000D22E00E010E0A72CBB24C501002E02C09F
:10191000959587950A94E2F780FF3BC08091A705D3
:10192000843169F5D6016D917D918D919C911397CC
:1019300058962D913D914D915C915B970E945F323D
:10194000F40120813181428153810E945F32D701AD
:101950006D937D938D939C9313970230D1F42091D6
:1019600088053091890540918A0550918B050E9428
:101970005F32F70160837183828393830AC0F4012D
:1019800080819181A281B381F70180839183A283B9
:10199000B3830F5F1F4F84E090E0E80EF91E880EBE
:1019A000991EC80ED91E0330110509F0AECFAE8DB9
:1019B000BF8DAF7ABF8FAE8F02C1772009F48EC57D
:1019C00009EB15E094E6C92E95E0D92E86E0882E25
:1019D000912C8C0E9D1EEE24FF24A72CBB24C50148
:1019E0000E2C02C0959587950A94E2F780FF2CC0D3
:1019F000F6016081718182819381D4012D913D91A5
:101A00004D915C910E945F32F801208131814281C9
:101A100053810E945F32D8016D937D938D939C9387
:101A20001397B2E0EB16D1F4209188053091890527
:101A300040918A0550918B050E945F32F8016083C6
:101A40007183828393830AC0F601808D918DA28D6C
:101A5000B38DF80180839183A283B3830894E11C42
:101A6000F11C0C5F1F4F84E090E0C80ED91E880E59
:101A7000991E93E0E916F10409F0B1CF9FC0ACA123
:101A8000A33009F47CC0772009F479C014E6C12E94
:101A900015E0D12E09EB15E0B6E0AB2EB12CAC0E63
:101AA000BD1EEE24FF24872C9924C4010E2C02C0F5
:101AB000959587950A94E2F780FD0BC0F601808129
:101AC0009181A281B381F80180839183A283B38342
:101AD00046C080918C05873009F441C08091900503
:101AE000882361F5D5016D917D918D919C91F601D1
:101AF000208D318D428D538D0E946032D8012D9101
:101B00003D914D915C910E946032F8016083718338
:101B100082839383F2E0EF1611F5209188053091CE
:101B2000890540918A0550918B050E946032D80149
:101B30006D937D938D939C93139711C0F8016081F1
:101B4000718182819381D6012D913D914D915C915E
:101B50000E946032F80160837183828393830894CA
:101B6000E11CF11C84E090E0C80ED91E0C5F1F4FF1
:101B7000A80EB91E93E0E916F10409F096CF809102
:101B80008C05853049F0873099F08330B9F477209F
:101B900009F41CA286E004C0772009F41CA287E0A7
:101BA000BE016E5E7F4F0E94C422882339F494C424
:101BB00080918D05823010F08EE193C418A21091AF
:101BC0008D05183049F4772009F45FC2ACA1A1302B
:101BD00009F45BC28FE185C4BCA1B23009F055C2E3
:101BE0001123E9F06091970570919805809199050E
:101BF00090919A0520E030E040E050E00E943933B7
:101C0000882309F463C4143030F4123060F41130C6
:101C100009F03BC204C0183008F037C213C2772065
:101C200009F432C232C2772009F458C4FBA1EF2F65
:101C3000F0E0F8A7EFA39AA1892F90E09EA38DA3CF
:101C400081E090E08C010DA002C0000F111F0A94EA
:101C5000E2F70FA002C0880F991F0A94E2F7082B41
:101C6000192B872D90E080239123892B11F480E29A
:101C700038C4EFA1F8A5EE0FFF1FEE0FFF1FDF0125
:101C8000A35BBA4FE457FA4F65A576A587A590A93F
:101C900057962D913D914D915C915A970E945F32DC
:101CA0005B016C01EDA1FEA1EE0FFF1FEE0FFF1F08
:101CB000DF01A35BBA4FE457FA4F65A576A587A568
:101CC00090A957962D913D914D915C915A970E9404
:101CD0005F321B012C01AE8DA7FF02C104E615E0A7
:101CE00069EBE62E65E0F62EF80160817181828154
:101CF0009381D7012D913D914D915C910E94393393
:101D0000882359F40C5F1F4FE4E0F0E0EE0EFF1E55
:101D1000F5E000371F0741F7E3C380918F0581305D
:101D2000B1F46091B0057091B1058091B2059091C8
:101D3000B30523E333E34BEC51E40E947735609322
:101D4000B0057093B1058093B2059093B305E09010
:101D5000B005F090B1050091B2051091B305C8012E
:101D6000B70120E030E040E850E40E947735A80158
:101D700097010E9477357B018C01C601B501A60150
:101D800095010E9477359B01AC01C801B7010E9403
:101D90005F327B018C01C201B101A20191010E945D
:101DA00077359B01AC01C801B7010E945F327B010E
:101DB0008C0120E030E040E050E00E94393388237D
:101DC00014F482E28EC3C801B7010E9404367B017D
:101DD0008C01C601B501A20191010E941E299B013F
:101DE000AC0117FB109517F91095C801B7010E94B7
:101DF00040337B018C0180918D05833021F417FBEA
:101E0000109517F910956090B0057090B10580900D
:101E1000B2059090B305C401B30120E030E040E08A
:101E200050E00E94393388237CF417FB109517F992
:101E30001095D401C301B0588093B0059093B105BB
:101E4000A093B205B093B3058E8D9F8D8F779F8F32
:101E50008E8FAFA1B8A5AA0FBB1FAA0FBB1FA0579B
:101E6000BA4FB8A7AFA3C201B101A80197010E9460
:101E700077359B01AC01C601B5010E945F3220E0BD
:101E800030E040E05FE30E947735EFA1F8A563877B
:101E90007487858796878DA19EA1880F991F880FCB
:101EA000991F80579A4F9EA38DA3C601B501A80123
:101EB00097010E9477359B01AC01C201B1010E94DC
:101EC000603220E030E040E05FE30E947735ADA172
:101ED000BEA11B966D937D938D939C931E97D5C049
:101EE000862C992408211921012B11F483E2F9C2CF
:101EF000EE8DFF8DE17FFF8FEE8F80918F0581301A
:101F000041F53BE9E32E35E0F32E00E010E0C4019B
:101F1000002E02C0959587950A94E2F780FF10C0C5
:101F2000D7016D917D918D919C9123E333E34BEC2F
:101F300051E40E947735F701608371838283938334
:101F40000F5F1F4F84E090E0E80EF91E033011058B
:101F5000F1F6EFA0F8A4EE0CFF1CEE0CFF1CA0E9BC
:101F6000B5E0EA0EFB1EC601B501F70123853485F5
:101F7000458556850E945F325B016C010DA11EA153
:101F8000000F111F000F111F00571A4FC201B1019E
:101F9000D8011B962D913D914D915C911E970E9409
:101FA0005F329B01AC01C601B5010E941E295B0195
:101FB0006C01F7016385748585859685D8011B962C
:101FC0002D913D914D915C911E970E941E293B01E0
:101FD0004C016093B0057093B1058093B205909366
:101FE000B305C601B501A40193010E945F327B01D4
:101FF0008C01E89417F9C801B7012AE037ED43EAEC
:102000005BE30E943C3518160CF03FC0C801B701D5
:1020100020E030E040E05FE30E943C3518160CF40D
:102020005FC2C401B3012FE632E143E85AE30E94E4
:1020300077359B01AC01C801B7010E943C351816E9
:1020400024F54EC2772009F449C204E615E089EB75
:10205000E82E85E0F82EF8016081718182819381FC
:10206000D7012D913D914D915C910E943933882388
:1020700061F40C5F1F4FE4E0F0E0EE0EFF1EF5E0B0
:1020800000371F0741F72CC21CA28E8D9F8D8E7DBD
:102090009C7F2CA1222321F08E8D9F8D8E7D907EA2
:1020A000892B11F084E21DC28091A8059091A905A9
:1020B000A091AA05B091AB0580936005909361054E
:1020C000A0936205B093630580918E0580934E05C1
:1020D0008091970590919805A0919905B0919A05E6
:1020E00080935B0590935C05A0935D05B0935E05BE
:1020F000E090B405F090B5050091B6051091B705D4
:1021000060915705709158058091590590915A0535
:10211000A80197010E9439338823C1F080915605A8
:10212000882321F0B801A7010E94AE128091B40566
:102130009091B505A091B605B091B705809357056C
:1021400090935805A0935905B0935A058091B8050E
:1021500080935F059091960580915605891779F0D7
:1021600040915705509158056091590570915A0555
:10217000892F0E94AE12809196058093560590910A
:10218000950580915505891739F0892F0E94BA125B
:10219000809195058093550580918C05813051F48F
:1021A0006091AC057091AD058091AE059091AF0541
:1021B0000E947804809191058093510580918F054C
:1021C00080934F058CA18330D9F480919205809340
:1021D0005205813049F48091C1059091C205A091CA
:1021E000C305B091C40504C080E090E0A0E0B0E079
:1021F0008093880590938905A0938A05B0938B05F9
:102200009091930580915305891759F09093530548
:10221000A0E7B5E0FE0136968CE001900D9281506A
:10222000E1F7809190058093500580918C05853071
:1022300059F1863048F4833039F1843008F044C0D5
:10224000823009F05AC00AC0883009F445C089308C
:1022500009F44CC0863009F050C038C08E010E5EC3
:102260001F4F88A1B8010E94B9228091530598A1FF
:10227000891709F042C0A0E7B5E0F8018CE00190B1
:102280000D928150E1F739C0ACA1AA2349F089EB46
:1022900095E040E050E060E87FEB20E00E94D3044E
:1022A0008E010E5E1F4FC80140E050E060E87FEBFA
:1022B00020E00E94D304A4E6B5E0F8018CE0019090
:1022C0000D928150E1F719C086E001C087E064E615
:1022D00075E00E94B92211C0ACE7B5E0E9EBF5E08A
:1022E0008CE001900D928150E1F707C08CE0ECE7A3
:1022F000F5E0DF011D928A95E9F780918D058093C5
:102300004D05883009F4C2C0BCA1B23009F0BEC08E
:10231000833009F44AC0843028F48130C1F082301F
:1023200028F50DC0853009F47AC0853008F469C0FD
:10233000863009F482C0873009F09FC08DC089EBD8
:1023400095E040E050E060E87FEB20E00CC0409179
:102350005B0550915C0560915D0570915E0589EBB0
:1023600095E020914E050E94D30487C000D00F92C3
:10237000EDB7FEB731960091B0051091B1052091EF
:10238000B2053091B305C0905B05D0905C05E0903C
:102390005D05F0905E058AA1ADB7BEB711968C932E
:1023A00099A1918381E082831DC000D00F92EDB787
:1023B000FEB731960091B0051091B1052091B2059C
:1023C0003091B305C0905B05D0905C05E0905D0551
:1023D000F0905E058AA1ADB7BEB711968C9399A116
:1023E0009183128284E695E069EB75E04BE955E054
:1023F000A0904E058BA00E9486050F900F900F9025
:102400003CC040915B0550915C0560915D05709109
:102410005E0589EB95E020914E0500E01BC04091E0
:102420005B0550915C0560915D0570915E0589EBDF
:1024300095E020914E0500E01CC040915B05509155
:102440005C0560915D0570915E0589EB95E02091DA
:102450004E0501E0EE240FC040915B0550915C05F4
:1024600060915D0570915E0589EB95E020914E05C8
:1024700001E0EE24E3940E940405A4E6B5E0E9EB54
:10248000F5E08CE001900D928150E1F78091940588
:1024900080935405882329F10E94E71481E08093FA
:1024A0002F050E94B61380915405823019F40E94C2
:1024B000390402C01092540580E013C088E111C0B5
:1024C00084E10FC087E10DC085E10BC086E109C042
:1024D0008CE107C08DE105C087E003C08AE101C03F
:1024E00081E2A8960FB6F894DEBF0FBECDBFCF91A4
:1024F000DF911F910F91FF90EF90DF90CF90BF90F1
:10250000AF909F908F907F906F905F904F903F9093
:102510002F90089584E00C94650A83E00C94650A7A
:1025200084E695E062E375E00E945C300895EDE496
:10253000F5E08FE3DF011D928A95E9F7809153055D
:10254000BF016D5D7F4F0E94C422882319F487E08C
:102550000E94742B089508950895089508953B9A54
:102560004398089543980895823011F4439A08954A
:10257000439808951F93182F80912E05823039F0CB
:102580000E94E714123011F4439A01C043981F913E
:1025900008959091010180910001891710F0891B25
:1025A00008958058891B0895E0ECF0E080818260F6
:1025B00080831092C50080E18093C400E1ECF0E0DC
:1025C0008081806180838081886080838081806851
:1025D00080830895282FE09102019E2F9F5F903401
:1025E00031F490E004C08091300584FD0FC08091EB
:1025F00003019817C1F3F0E0EB53FA4F2083909357
:1026000002018091C10080628093C10008951F92F1
:102610000F920FB60F9211248F939F93EF93FF9316
:1026200080910301E82FF0E0EB53FA4F90819093F3
:10263000C600982F9F5F903409F490E090930301B7
:1026400080910201981729F48091C1008F7D8093B9
:10265000C100FF91EF919F918F910F900FBE0F904E
:102660001F9018959091010180910001891711F434
:102670008FEF0895E92FF0E0EB5FF94F8081E92FAC
:10268000EF5FE03809F4E0E0E09301010895809104
:1026900000018093010108951F920F920FB60F92CF
:1026A00011242F933F934F935F936F937F938F9357
:1026B0009F93AF93BF93EF93FF939091C6009F3387
:1026C00061F0903428F4983119F1913221F514C059
:1026D0009034C1F09E37F9F406C09FB7F89480910A
:1026E0003005816005C09FB7F89480913005826005
:1026F000809330059FBF20C09FB7F894809130052C
:102700008860F6CF9FB7F894809130058062F0CF53
:102710000E94390411C0E09100012E2F2F5F203854
:1027200009F420E080910101281731F0F0E0EB5F1F
:10273000F94F908320930001FF91EF91BF91AF91EA
:102740009F918F917F916F915F914F913F912F91C9
:102750000F900FBE0F901F9018959FB7F89480911F
:1027600030058260809330059FBF0895CF92DF923D
:10277000EF92FF920F931F93CF93DF93FF24F39475
:1027800028E0D22E90E2C92E00E180E4E82E80916C
:102790003105882381F1F0922E05182F81FF02C0A8
:1027A00081E00FC082FF02C082E00BC083FF02C045
:1027B00083E007C084FF02C084E003C085FF03C03C
:1027C00085E00E94FF2F10FF0FC081E00E94452B83
:1027D0009FB7F894809130058F7E809330059FBF1E
:1027E0008091300584FFFCCF8FB7F894909131052C
:1027F000109231058FBF10913005112309F4C5C027
:10280000C12FD0E014FF04C081E080932D05D6C015
:1028100010FF0AC00E94DB2B9FB7F894809130050F
:102820008E7F809330059FBFCE0188769070892B74
:1028300009F43DC090912E05992349F0892F8C779A
:1028400071F1983021F40E947F16F0922F0590913B
:102850002E05992319F482E080932F05C6FF09C045
:10286000983011F4E0922E0580912F0588608093B6
:102870002F05C3FF06C080912E0585FD02C0009381
:102880002E05C5FF0CC086E00E94452B80912F05C8
:1028900081FD1460846080932F05C0922E059FB740
:1028A000F894809130058779809330059FBFC12FC0
:1028B000D0E011FF4AC0CE0188769070892BE9F5EF
:1028C00080912E05882331F08075B9F180912F0514
:1028D00081FF33C080912F0582FF1CC08091560577
:1028E000882371F040915705509158056091590522
:1028F00070915A050E94AD1280EA9FE00E9414294F
:1029000080915505882331F00E94B41288EE93E03F
:102910000E9414290E948E23892B59F080912F0543
:1029200083FD07C0D0922E050E94A1160E94881533
:1029300002C010922E0510922F059FB7F894809137
:1029400030058D7F809330059FBFC2FF1EC08091F0
:102950002E05807371F080912F0582FF04C00E94C4
:10296000AC120E94B21280912F05826080932F05D5
:1029700004C010922F0510922E059FB7F8948091F5
:1029800030058B7F809330059FBF80912E058C771B
:1029900011F00E94A11680912E05803251F4809191
:1029A0002F0581FF06C00E943E30882311F400935A
:1029B0002E0580912F05882309F0E9CEDF91CF9174
:1029C0001F910F91FF90EF90DF90CF9008959FB7E8
:1029D000F894809130058260809330059FBF0E94FB
:1029E000B61380912D05882341F40E948E23892BF4
:1029F000B1F780912E05883091F308950F931F93BE
:102A00000E94402B80912E05813021F482E00E94AB
:102A1000452B28C00E943E30882341F0809130052C
:102A20008062809330050E94B61302C010922E057A
:102A300084E091E00E94C73015C09A3011F09D30BB
:102A400029F5E12FF0E0EC5FFE4F10820E94B613F3
:102A500080912D05882331F480910401882321F48D
:102A60000E94742B00E02BC0843229F484E091E0B2
:102A70000E94F330F5CF80912E05813011F489E06A
:102A8000EFCF84E091E00E946F08EACF002331F09D
:102A9000993239F5013029F500E023C0913208F16F
:102AA0009F32F9F0983211F401E01BC09B3311F40E
:102AB00002E017C01F3428F08BE00E94742B10E056
:102AC00010C0892F8156A12FB0E0E12FEF5F8A312E
:102AD00020F4AC5FBE4F905202C0AC5FBE4F9C93DF
:102AE0001E2F0E943213982F8F3F09F0A6CF8FB769
:102AF000F894909130059260909330058FBF0E94BA
:102B0000B61380912D05882361F31F910F910895CD
:102B1000EFE6F0E080818260808308959B01220FC0
:102B2000331F892B69F4F901EC5AFE4F80819181A2
:102B30000196918380830897C0F01182108215C09E
:102B4000F901EC5AFE4F80819181892B21F488E0B4
:102B500090E091838083FB01EE0FFF1FEC5AFE4F44
:102B60008081918101979183808361157105D1F5F1
:102B700080915401909155018330910501F1843089
:102B8000910530F48130910599F0029798F40DC0C9
:102B900085309105E1F085309105A0F086309105F2
:102BA000D1F0079709F03FC01BC05E985F9A04C040
:102BB0005E9801C05E9A5F98289A299A08955E9A55
:102BC0005F9802C05E9A5F9A2898299A2CC05E9AF4
:102BD0005F9A289803C05E9A5F9A289A299823C022
:102BE0005E98FACF61307105F1F4809156019091B1
:102BF000570183309105D9F18430910508F1853072
:102C0000910509F43CC085309105A0F1863091050D
:102C1000D1F1079709F040C004C05A985B985C9ABC
:102C20002CC05A9831C062307105B1F580915801BD
:102C30009091590183309105D1F08430910530F4A1
:102C40008130910551F3029780F40CC085309105D5
:102C5000B1F08530910570F086309105A1F00797AD
:102C6000D9F416C05A985B9ADACF5A9AD7CF5A9AA3
:102C70005B9802C05A9A5B9A5C985D9A08955A9A3A
:102C80005B9A5C9803C05A9A5B9A5C9A5D98089527
:102C90005A985B9A5C9A5D9808951F920F920FB6AE
:102CA0000F92112415BC0F900FBE0F901F90189516
:102CB00084B18F6384B985B18F6385B98AB18C6F14
:102CC0008AB98BB18C6F8BB9E1E8F0E080818F7E9F
:102CD0008083808188608083E0E8F0E080818C7F61
:102CE000808380818F708083EEE6F0E08081887F32
:102CF000808314BC15BC8081816080830895CF934C
:102D0000DF93C091FC01D091FD012097B9F081E0E3
:102D1000809301022091170230911802409119020C
:102D200050911A02CA01B9010E947735698B7A8BDA
:102D30008B8B9C8B1092FD011092FC01DF91CF9147
:102D400008952F923F924F925F926F927F928F924F
:102D50009F92AF92BF92CF92DF92EF92FF920F932A
:102D60001F93DF93CF93CDB7DEB7E9970FB6F894F3
:102D7000DEBF0FBECDBF80912E05807709F422C63D
:102D800060911702709118028091190290911A02B5
:102D900020E030E040E050E00E943933882309F021
:102DA00011C617C68091FC019091FD01892B09F095
:102DB0007EC20E948E239093FD018093FC01892B9B
:102DC00009F407C680910102882319F010920102CC
:102DD000CAC0809100028F5F80930002853011F499
:102DE00010920002E091000221E1E29FF001112423
:102DF000E65AFE4FF093FF01E093FE010091FC01C3
:102E00001091FD01D8018C91808311962D913D91F7
:102E10004D915C91149793E0220F331F441F551F6F
:102E20009A95D1F7218332834383548315962D914C
:102E30003D914D915C91189783E0220F331F441F01
:102E4000551F8A95D1F72583368347835087199676
:102E50002D913D914D915C911C9773E0220F331F92
:102E6000441F551F7A95D1F72187328743875487AE
:102E70001D962D913D914D915C91509763E0220FED
:102E8000331F441F551F6A95D1F72587368747871B
:102E9000508B1D966D917D918D919C9150970E94C4
:102EA000D9336093020270930302809304029093DB
:102EB0000502F80125A136A147A150A50E94403383
:102EC0009B01AC0160930602709307028093080295
:102ED0009093090260E070E080EA9FE30E94403333
:102EE00060930A0270930B0280930C0290930D0280
:102EF00080E090E0A0E0B0E080930E0290930F029B
:102F0000A0931002B093110280912E058077E1F01A
:102F100020911F0230912002409121025091220203
:102F200020931702309318024093190250931A020B
:102F3000CA01B9010E947735D80151966D937D93EE
:102F40008D939C9354970FC0F8016189728983898E
:102F500094890E940436609317027093180280933C
:102F6000190290931A0280E090E0A0E0B0E0809314
:102F7000130290931402A0931502B09316020091CD
:102F8000FC011091FD01D80191968D919D910D90BC
:102F9000BC91A02D88AB99ABAAABBBAB60E070E055
:102FA00080E09FE328A939A94AA95BA90E94403380
:102FB0001B012C0180912E05807709F456C0B2E0E8
:102FC000B0931202F801A5A0B6A0C7A0D0A4618852
:102FD000728883889488C201B101A40193010E9480
:102FE00077359B01AC01C601B5010E945F327B01C0
:102FF0008C0120E030E040E050E00E94393388232B
:10300000FCF468A979A98AA99BA920E030E040E0F6
:1030100050EC0E947735A60195010E9477359B01FF
:10302000AC01C401B3010E9460320E940436609377
:103030001F0270932002809321029093220237C1D5
:10304000E0921302F09214020093150210931602FC
:1030500080E090E0A0E0B0E080931F029093200217
:10306000A0932102B093220222C110921202F80111
:1030700085A196A1A7A1B0A58093230290932402D5
:10308000A0932502B09326020E940D255B016C01DE
:1030900060931F027093200280932102909322027A
:1030A000A60195010E9477353B014C012091FC015E
:1030B0003091FD0139AF28AFD90195968D919D9141
:1030C0000D90BC91A02D8B8F9C8FAD8FBE8FF90181
:1030D0006189728983899489A40193010E945F3276
:1030E0009B01AC01C201B1010E9477359B01AC018B
:1030F0006B8D7C8D8D8D9E8D0E94603220E030E046
:1031000040E05FE30E9477357B018C0120E030E0F6
:1031100040E050E00E943C3518160CF0B4C0C801E5
:10312000B7012B8D3C8D4D8D5E8D0E9439338823E8
:103130000CF095C0A8ADB9AD5D966D917D918D9166
:103140009C919097A40193010E945F329B01AC0176
:10315000C201B1010E947735609327027093280263
:103160008093290290932A02A80197010E94393383
:1031700088230CF047C0E8ADF9ADE58CF68C078DDF
:1031800010A1C801B7010E94043660931B0270931E
:103190001C0280931D0290931E02A8ADB9AD5196FA
:1031A000AD90BD90CD90DC905497C601B501A801BB
:1031B00097010E943933882321F4B1E0B0931202C1
:1031C00076C0C801B701A60195010E945F329B013C
:1031D000AC01C201B1010E9477359B01AC01609145
:1031E00023027091240280912502909126020E9470
:1031F0005F326093230270932402809325029093A0
:10320000260255C0E0922302F09224020093250288
:1032100010932602E0922702F092280200932902DE
:1032200010932A02E8ADF9AD21A132A143A154A126
:10323000CA01B9010E946032A80197010E94773546
:10324000A40193010E9460320E94043660931B0225
:1032500070931C0280931D0290931E0228C0F2E01E
:10326000F09312028091170290911802A091190216
:10327000B0911A0280931B0290931C02A0931D022E
:10328000B0931E0214C080E090E0A0E0B0E0809314
:10329000230290932402A0932502B0932602A092C9
:1032A0001B02B0921C02C0921D02D0921E0280919D
:1032B000F701B6E08B9FD0011124A155BE4FB9AFE5
:1032C000A8AF8091000212968C93E091FC01F091DE
:1032D000FD01FA8FE98F85A196A1A7A1B0A58D8BDD
:1032E0009E8BAF8BB88FBC01CD0120910A0230912B
:1032F0000B0240910C0250910D020E945F326CA3B0
:103300007DA38EA39FA320E030E040E050E00E9428
:103310003933882344F480E090E0A0E0B0E08CA34F
:103320009DA3AEA3BFA38091230290912402A091FC
:103330002502B0912602898B9A8BAB8BBC8B809136
:103340001B0290911C02A0911D02B0911E028D875C
:103350009E87AF87B88B8091270290912802A09119
:103360002902B0912A0289879A87AB87BC8780910E
:10337000130290911402A0911502B09116028D8350
:103380009E83AF83B88780911F0290912002A09105
:103390002102B091220289839A83AB83BC838091FE
:1033A000170290911802A0911902B0911A0288A3F5
:1033B00099A3AAA3BBA3909112029F8FAD88BE8848
:1033C000CF88D88C8EE393ECAEE2B9E38CA79DA7AF
:1033D000AEA7BFA780E090E0A0E0B0E088A799A7E3
:1033E000AAA7BBA70F2EFEE36F2EF3EC7F2EFEE203
:1033F0008F2EF9E39F2EF02D9F8D992321F0913090
:1034000009F0B3C080C0C401B301A98DBA8D9196F3
:103410002D913D914D915C9194970E9477357B0160
:103420008C0120E030E040E05FE30E9477359B01B3
:10343000AC0168A179A18AA19BA10E9460329B0185
:10344000AC01C401B3010E9477359B01AC01C601F8
:10345000B5010E945F325B016C0129893A894B8971
:103460005C890E94393388230CF040C069897A89CD
:103470008B899C8929853A854B855C850E943933E7
:10348000882319F4B2E0BF8F02C0E1E0EF8F6D89AD
:103490007E898F89988D29893A894B895C890E9418
:1034A0005F329B01AC010E9460327B018C0168A1FC
:1034B00079A18AA19BA12D853E854F8558890E94BF
:1034C00060329B01AC01C801B7010E9440333B014F
:1034D0004C01A988BA88CB88DC888D859E85AF850C
:1034E000B88988A399A3AAA3BBA3B0C068A179A1F6
:1034F0008AA19BA1A80197010E94603268A379A3C9
:103500008AA39BA3A3C06D857E858F859889A4011E
:1035100093010E9477359B01AC01C601B5010E9461
:103520005F327B018C0129853A854B855C850E9441
:10353000393387FD03C05701680188C0C601B50152
:1035400029853A854B855C850E945F322D853E85B5
:103550004F8558890E9440333B014C01A984BA84AD
:10356000CB84DC8492E09F8F71C0C401B301A98D2C
:10357000BA8D91962D913D914D915C9194970E94B9
:1035800077357B018C0168A179A18AA19BA1A80153
:1035900097010E943C351816ACF5C801B70120E030
:1035A00030E040E05FEB0E9477359B01AC0168A101
:1035B00079A18AA19BA10E9460329B01AC01C40148
:1035C000B3010E9477359B01AC01C601B5010E9491
:1035D0005F321B012C012D813E814F8158850E9455
:1035E0003C3518167CF468A179A18AA19BA1A80199
:1035F00097010E945F3268A379A38AA39BA362010B
:10360000510124C0C601B5012D813E814F815885ED
:103610000E945F329B01AC010E9460327B018C01F1
:1036200068A179A18AA19BA129813A814B815C8102
:103630000E9460329B01AC01C801B7010E94403377
:103640003B014C01AD80BE80CF80D88468A579A5B0
:103650008AA59BA5A40193010E94603268A779A75F
:103660008AA79BA72CA53DA54EA55FA50E9439332F
:1036700088232CF46CA57DA58EA59FA518C0C60136
:10368000B5012CA13DA14EA15FA10E943C351816A9
:103690000CF56CA57DA58EA59FA52EE333EC4EE21F
:1036A00059E30E9460326CA77DA78EA79FA728A52B
:1036B00039A54AA55BA50E945F323B014C01C601BA
:1036C000B5012D813E814F8158850E943C351816E9
:1036D0000CF492CE88A199A1AAA1BBA18093170254
:1036E00090931802A0931902B0931A029F8D9093A1
:1036F0001202C601B50120910602309107024091E5
:103700000802509109020E9477356CAB7DAB8EABFD
:103710009FAB0E9426331B012C0160910202709125
:10372000030280910402909105020E9426333B011E
:103730004C01A20191010E945F320E94AD33A8ADFD
:10374000B9AD6D937C93672BB1F580912E05807791
:1037500091F180E090E0A0E0B0E0809317029093B8
:103760001802A0931902B0931A0280930E0290934C
:103770000F02A0931002B093110220920202309225
:10378000030240920402509205020091FC01109144
:10379000FD01C201B1012091060230910702409162
:1037A0000802509109020E944033F80165A376A3F4
:1037B00087A390A7FEC068A579A58AA59BA520919F
:1037C0000E0230910F0240911002509111020E949E
:1037D00060327B018C01C401B3012CA93DA94EA923
:1037E0005FA90E945F329B01AC01C801B7010E9432
:1037F00040337B018C01C201B1012CA93DA94EA926
:103800005FA90E945F32A80197010E9477356093FB
:103810000E0270930F028093100290931102C80160
:10382000B70120EC31EE44E65EE40E9477350E9459
:1038300026330E94AD33AB01BC01403DF7E05F078A
:10384000F0E06F07F0E07F0728F4A8ADB9AD15965A
:103850001C9233C0403ABFE05B07B0E06B07B0E0BA
:103860007B0728F421E0E8ADF9AD25830FC0403493
:103870003FE1530730E0630730E0730710F4E2E004
:1038800001C0E3E0A8ADB9AD1596EC93A8ADB9AD14
:1038900015962C911597022E04C07695679557952D
:1038A00047950A94D2F78D919C91119702C0880F89
:1038B000991F2A95E2F78D939C934030B0E05B0707
:1038C000B1E06B07B0E07B0728F4E8ADF9AD5483B5
:1038D000438308C0EFEFFFEFA8ADB9AD1496FC939A
:1038E000EE9313978091F8018093F7018F5F809397
:1038F000F801863011F41092F801C601B5012D814E
:103900003E814F8158850E943C351816ACF4E091F9
:10391000FC01F091FD01A5A2B6A2C7A2D0A68CA978
:103920009DA9AEA9BFA98093020290930302A09320
:103930000402B093050246C0C601B50120E030E0A4
:1039400040E050E00E943C351816B4F580E090E06D
:10395000A0E0B0E08093170290931802A0931902A0
:10396000B0931A0280930E0290930F02A09310025C
:10397000B09311022092020230920302409204029C
:10398000509205020091FC011091FD01C201B101AC
:1039900020910602309107024091080250910902DD
:1039A0000E944033D80195966D937D938D939C939F
:1039B00098970E9404250DC01092FD011092FC0101
:1039C0000E947A239091F6018091F801981709F0EE
:1039D000E9C9E9960FB6F894DEBF0FBECDBFCF910F
:1039E000DF911F910F91FF90EF90DF90CF90BF90EC
:1039F000AF909F908F907F906F905F904F903F908F
:103A00002F900895FF920F931F93CF93DF931092FF
:103A1000F9011092FA01C0E0D0E00C2FFC2E809149
:103A2000B60690E00C2E02C0959587950A94E2F7B1
:103A300080FF08C01091F9018C2F0E948620182B5E
:103A40001093F9018091B70690E002C09595879593
:103A5000FA94E2F780FF08C01091FA01802F0E94CB
:103A60009020182B1093FA012196C330D105A9F6A6
:103A7000DF91CF911F910F91FF90089580916F007A
:103A80008D7F80936F0080918100887F816080931B
:103A900081001092FB019091B8069F3F21F4809124
:103AA0003105882341F080912E05843021F0892F43
:103AB00090E00E94142908950E943E1D8BE2E0E0F0
:103AC000F2E0DF011D928A95E9F783E2E3EDF1E090
:103AD000DF011D928A95E9F71092F5011092F40129
:103AE0001092FD011092FC011092F6011092F70164
:103AF00081E08093F8011092FB010E94021D08955D
:103B00001F920F920FB60F9211242F933F934F9352
:103B10005F936F937F938F939F93AF93BF93CF9355
:103B2000DF93EF93FF938091FB01882309F031C26B
:103B30008091E10182FF10C0E091F201F091F30168
:103B4000808185FF03C080E090E002C081E090E0CA
:103B500060E070E00E948E158091E10183FF10C04B
:103B6000E091F201F091F301808186FF03C080E0D3
:103B700090E002C081E090E061E070E00E948E156C
:103B80008091E10184FF10C0E091F201F091F30116
:103B9000808187FF03C080E090E002C081E090E078
:103BA00062E070E00E948E1581E08093FB017894C2
:103BB0008091F4019091F501892B09F0A2C09091B8
:103BC000F6018091F701891709F490C09091F601F0
:103BD00086E0989FE0011124C155DE4FD093F50196
:103BE000C093F4018B819C8190938900809388001D
:103BF000888199819093F0018093EF019A8180915F
:103C0000F101891761F19093F101E1E19E9FF001CB
:103C10001124E65AFE4FF093F301E093F2018585FB
:103C20009685A785B089B695A79597958795809332
:103C3000D3019093D401A093D501B093D601809382
:103C4000D7019093D801A093D901B093DA01809362
:103C5000DB019093DC01A093DD01B093DE01E091E4
:103C6000F201F091F3018091FA019081892780930C
:103C7000E2012D8181819281A381B481022E04C051
:103C8000B695A795979587950A94D2F78093E30107
:103C90009093E401A093E501B093E60185819681BC
:103CA000A781B085022E04C0B695A79597958795F4
:103CB0000A94D2F78093E7019093E801A093E90179
:103CC000B093EA0181859285A385B48504C0B69539
:103CD000A795979587952A95D2F78093EB019093B6
:103CE000EC01A093ED01B093EE010BC00E943E1DCC
:103CF0009FB7F894809130058460809330059FBF12
:103D000048C10E94202B1092E1012091E3013091E3
:103D1000E4014091E5015091E6018091D301909139
:103D2000D401A091D501B091D601280F391F4A1FA7
:103D30005B1F2093D3013093D4014093D50150935E
:103D4000D601E091F201F091F30185859685A78572
:103D5000B08982179307A407B507A8F584E080937C
:103D6000E10185859685A785B089281B390B4A0B0B
:103D70005B0B2093D3013093D4014093D501509332
:103D8000D601808185FF0CC080913205909133056A
:103D9000A0913405B09135050197A109B1090BC077
:103DA0008091320590913305A0913405B09135058D
:103DB0000196A11DB11D8093320590933305A09308
:103DC0003405B09335052091E7013091E801409129
:103DD000E9015091EA018091D7019091D801A09119
:103DE000D901B091DA01280F391F4A1F5B1F2093B8
:103DF000D7013093D8014093D9015093DA018585DA
:103E00009685A785B08982179307A407B507B8F5EB
:103E10008091E10188608093E10185859685A78581
:103E2000B089281B390B4A0B5B0B2093D7013093C9
:103E3000D8014093D9015093DA01808186FF0CC0EC
:103E40008091360590913705A0913805B0913905DC
:103E50000197A109B1090BC08091360590913705F2
:103E6000A0913805B09139050196A11DB11D80932F
:103E7000360590933705A0933805B0933905209106
:103E8000EB013091EC014091ED015091EE018091F8
:103E9000DB019091DC01A091DD01B091DE01280FE2
:103EA000391F4A1F5B1F2093DB013093DC014093D5
:103EB000DD015093DE0185859685A785B08982173F
:103EC0009307A407B507B8F58091E101806180935D
:103ED000E10185859685A785B089281B390B4A0B9A
:103EE0005B0B2093DB013093DC014093DD015093A9
:103EF000DE01808187FF0CC080913A0590913B05DF
:103F0000A0913C05B0913D050197A109B1090BC0F5
:103F100080913A0590913B05A0913C05B0913D05FB
:103F20000196A11DB11D80933A0590933B05A09386
:103F30003C05B0933D0580912E05843039F4809185
:103F40003E059091E10189238093E1018091EF0189
:103F50009091F00101979093F0018093EF01892BEC
:103F600079F41092F5011092F4018091F6018F5FBF
:103F70008093F6018091F601863011F41092F601DB
:103F80008091F9019091E10189278093E1011092DC
:103F9000FB01FF91EF91DF91CF91BF91AF919F9185
:103FA0008F917F916F915F914F913F912F910F90E2
:103FB0000FBE0F901F901895F999FECF92BD81BD4D
:103FC00081E08FBB80B50895F894F999FECF92BD3A
:103FD00081BD81E08FBB40B54627842F992787FD9F
:103FE0009095262F30E082239323892B39F06F3F61
:103FF00019F060BD84E006C084E104C0442321F0D0
:1040000060BD84E28FBBF99A789408958F929F9255
:10401000AF92BF92CF92DF92EF92FF920F93DF9316
:10402000CF9300D0CDB7DEB75C016B017A014A01B6
:1040300000E01EC0002319F021E030E008C0202F6E
:10404000332727FD30952227330F221F3327F60110
:1040500061916F01062F020F9C012F5F3F4F3A8342
:1040600029830E94E41F08948108910889819A811C
:1040700081149104F9F6C7018A0D9B1D602F0E94DF
:10408000E41F0F900F90CF91DF910F91FF90EF9071
:10409000DF90CF90BF90AF909F908F900895CF9377
:1040A000DF93EC01FB019A0190E0B1E019C0F999AE
:1040B000FECFF2BDE1BDBFBBA0B5992319F081E0F1
:1040C00090E008C0892F992787FD90958827990F40
:1040D000881F992731969A2F980FA9932150304025
:1040E0002115310521F7460F571FF999FECF52BD13
:1040F00041BD81E08FBB80B520E030E0981711F41E
:1041000021E030E0C901DF91CF910895882311F4B7
:1041100084E00895813011F080E1089588E00895E9
:10412000882311F480E20895813011F080E8089529
:1041300080E4089580E090E00E94DC1F893011F057
:1041400020E00CC085E896E061E070E04DE450E0CE
:104150000E944F2020E0892B09F021E0822F089552
:1041600080E093E060E00E94E41F81E593E060E07E
:104170000E94E41F089580E090E069E00E94E41F3F
:1041800081E090E065E876E04DE450E00E94062092
:104190000895CF92DF92EF92FF920F931F93082F13
:1041A0006A017B01CB01BA0120E030E040E050E041
:1041B0000E943933882314F484E012C1043608F4D1
:1041C0005DC0045690E0033008F04FC09130A9F074
:1041D000913030F09230F1F0933009F0FCC035C0EE
:1041E000E02FF0E0EE0FFF1FEE0FFF1FEB57F94F30
:1041F000C082D182E282F382EEC0E02FF0E0EE0FC7
:10420000FF1FEE0FFF1FEB57F94FC486D586E686DA
:10421000F786E1C010E0000F111F000F111F0B57B0
:10422000194FC701B60120E030E040E752E40E9498
:10423000773520E030E040E752E40E947735F8011E
:10424000608F718F828F938FC6C0E02FF0E0EE0FEA
:10425000FF1FEE0FFF1FEB57F94FD701C601B058F4
:1042600084A395A3A6A3B7A3B6C00A3008F4B7C029
:104270009F5F943009F4B3C00A50A5CFC701B601BF
:104280000E9445360E94AD33E02FF0E0EC31F1059D
:1042900008F0A5C0EC5CFF4FEE0FFF1F0590F491F6
:1042A000E02D0994633010F486E09AC06093B5065F
:1042B00092C06093B8068FC06093B60602C0609348
:1042C000B7060E94021D87C0662321F08091C206B6
:1042D000846009C08091C2068B7F05C0662331F0DF
:1042E0008091C20680648093C20675C08091C20628
:1042F0008F7BF9CF662321F08091C2068068F3CFCF
:104300008091C2068F77EFCF6093B90664C0C092E8
:10431000BA06D092BB06E092BC06F092BD065BC026
:10432000C092BE06D092BF06E092C006F092C106CF
:1043300052C0662321F08091C2068160D4CF809163
:10434000C2068E7FD0CF662341F08091C20684FDE5
:1043500002C08AE045C08062C6CF8091C2068F7DD0
:10436000C2CF662321F08091C206886003C080918D
:10437000C206877F8093C2060E9447292CC066230D
:1043800021F08091C2068061AECF8091C2068F7C01
:10439000AACF6093C3061FC0C092C406D092C506C0
:1043A000E092C606F092C70616C0C092C806D09228
:1043B000C906E092CA06F092CB060DC06093CC0607
:1043C0001092CD0608C0C092CE06D092CF06E092E1
:1043D000D006F092D1060E94BB2080E001C083E0AD
:1043E0001F910F91FF90EF90DF90CF9008958AE09A
:1043F0008093B50689E18093B8061092B6061092B4
:10440000B70683E08093B9068AE097EDA3EABCE3A0
:104410008093BA069093BB06A093BC06B093BD06EA
:104420008FE692E1A3E0BBE38093BE069093BF06C4
:10443000A093C006B093C1061092C30680E090E03E
:10444000A8ECB1E48093C4069093C506A093C60679
:10445000B093C70620E030E04AEF53E42093C8064B
:104460003093C9064093CA065093CB068AEF90E07A
:104470009093CD068093CC0680E090E0A0E8BFE367
:104480008093CE069093CF06A093D006B093D1062A
:104490001092C20680E090E0AAE7B3E4809385061C
:1044A00090938606A0938706B0938806809389062A
:1044B00090938A06A0938B06B0938C0680938D060A
:1044C00090938E06A0938F06B0939006209391064A
:1044D000309392064093930650939406209395064A
:1044E000309396064093970650939806209399062A
:1044F00030939A0640939B0650939C0680E090EA86
:10450000ACE0B7E480939D0690939E06A0939F062F
:10451000B093A0068093A1069093A206A093A30651
:10452000B093A4068093A5069093A606A093A70631
:10453000B093A80680E090E0A8E4B3EC8093A906CD
:104540009093AA06A093AB06B093AC068093AD06F9
:104550009093AE06A093AF06B093B0068093B106D9
:104560009093B206A093B306B093B4060E94BB200A
:1045700008959DE0899FC001112480509E4F4CE01A
:1045800050E00E94062008950F931F93CF93DF936E
:10459000162F072F9DE0899FE0011124C050DE4FA8
:1045A000862F972FBE014CE050E00E944F20892BB0
:1045B00011F081E00FC0E12FF02F8CE0DF011D92A0
:1045C0008A95E9F7CE01612F702F4CE050E00E94F0
:1045D000062080E0DF91CF911F910F910895EF9217
:1045E000FF921F93DF93CF93CDB7DEB72C970FB613
:1045F000F894DEBF0FBECDBF0E949A20882371F4CD
:1046000087E00E94742B0E94F7210E94B0208EEA5E
:1046100093E060E00E94E41F0E94812E10E07E0182
:104620000894E11CF11C812FB7010E94C422882349
:1046300019F487E00E94742B1F5F1830A1F72C96A5
:104640000FB6F894DEBF0FBECDBFCF91DF911F91A3
:10465000FF90EF900895BC018EEA93E040E550E0B2
:104660000E9406200895CF93DF93EC016EEA73E079
:1046700040E550E00E944F20892B11F081E009C0F5
:1046800018828EEA93E0BE0140E550E00E940620C9
:1046900080E0DF91CF91089591E5899FC0011124B9
:1046A00080509D4F40E550E00E94062008950F93F2
:1046B0001F93CF93DF938B0191E5899FE001112434
:1046C000C050DD4FCB01BE0140E550E00E944F20BD
:1046D000892B11F081E009C0F8011082CE01B801E8
:1046E00040E550E00E94062080E0DF91CF911F91CD
:1046F0000F91089520910D0580910E05821769F0A4
:10470000922F9F5F923109F490E080911005281755
:1047100011F49093100590930D05089590910D0557
:1047200080910E05891719F420E030E006C089E277
:10473000989F90011124255D3D4FC901089520E007
:1047400090910D0580910F05981709F421E0822FB3
:1047500008958091320590913305A0913405B09170
:1047600035058093110590931205A0931305B0931E
:1047700014058091360590913705A0913805B091C8
:1047800039058093150590931605A0931705B093EE
:10479000180580913A0590913B05A0913C05B09198
:1047A0003D058093190590931A05A0931B05B093BE
:1047B0001C05089580910E0590910D05891710F044
:1047C000891B08958E5E891B08954F925F926F92A8
:1047D0007F928F929F92AF92BF92CF92DF92EF9291
:1047E000FF920F931F93CF93DF9380910E05882341
:1047F00009F482E1782E7A9460901005761409F419
:10480000F2C089E2789E400111248BE292E0880E8A
:10481000991EF401A588B688C788D08C21A132A141
:1048200043A154A1CA01B9010E946032F40125A13B
:1048300036A147A150A50E9477357B018C01B501B7
:10484000C601A80197010E94393387FD04C0D80131
:10485000C70157016D01C501D601F401818B928B0F
:10486000A38BB48B772011F432E1732E7A947614F3
:1048700009F04EC080910D05681609F050C00E94E5
:104880007F164DC0769CE0011124C55DDD4F772079
:1048900011F422E1722E7A9480910D05781611F4AC
:1048A0000E947F16AD88BE88CF88D88C69897A89A6
:1048B0008B899C89A60195010E943933882331F1A7
:1048C00029A13AA14BA15CA1CA01B9010E946032A1
:1048D0002DA13EA14FA158A50E947735F401218951
:1048E0003289438954890E9460327B018C01A60180
:1048F00095010E94393388232CF4E98AFA8A0B8BBC
:104900001C8B04C0A98ABA8ACB8ADC8A4E0102C0F9
:1049100099E2692E80911005781609F0B3CFA09026
:104920001005BA2CB394F2E1BF1609F4BB2489E256
:10493000A89E80011124055D1D4F50900E0589E24F
:10494000482E4CC0B49CE0011124C55DDD4FF80138
:10495000C188D288E388F48869887A888B889C88A3
:10496000C701B601A40193010E94393388231CF5C5
:10497000F80121A132A143A154A1CA01B9010E94A9
:104980006032F80125A136A147A150A50E947735D4
:104990009B01AC01C701B6010E9460327B018C0112
:1049A000A40193010E94393388232CF4E98AFA8AFE
:1049B0000B8B1C8BAB2C69897A898B899C892D89FF
:1049C0003E894F89588D0E943933882309F4AB2CD6
:1049D000B394F2E1BF1609F4BB248E01B51409F0BB
:1049E000B1CFA0921005DF91CF911F910F91FF9051
:1049F000EF90DF90CF90BF90AF909F908F907F907F
:104A00006F905F904F9008950E947F1680910D05E2
:104A1000809310050E94E523089520910D052F5FD6
:104A2000223109F420E080910E05281729F460E076
:104A300070E080E090E012C030E089E290E0289FD2
:104A4000F001299FF00D389FF00D1124E55DFD4F19
:104A500061897289838994890E94043608952F920E
:104A60003F924F925F926F927F928F929F92AF92FE
:104A7000BF92CF92DF92EF92FF920F931F93DF933B
:104A8000CF93CDB7DEB7E0970FB6F894DEBF0FBE79
:104A9000CDBF98A78FA349A75AA76BA77CA7222EA3
:104AA00090910E0589E2989F400111242BE232E09B
:104AB000820E931ED4011D961D921D921D921C9272
:104AC000509780E090E0A0E0B0E0F40185A396A3C9
:104AD000A7A3B0A7108289E996E7A6E9BEE781A35C
:104AE00092A3A3A3B4A32401332466247724F3015F
:104AF000EB57F94FA080B180C280D380EFA1F8A519
:104B0000E60DF71DC601B501208131814281538137
:104B10000E9477350E9447359B01AC01E1E0F0E04F
:104B2000EC0FFD1FE60DF71D208331834283538375
:104B3000F301EF5EFA4F80819181A281B381281B3E
:104B4000390B4A0B5B0BDA01C90157FF07C08827F5
:104B50009927DC01821B930BA40BB50BF201818317
:104B60009283A383B483F401E584F68407851089D6
:104B70008E159F05A007B10710F4D801C701F401F5
:104B800085879687A787B08BCA01B9010E94DB335E
:104B9000A60195010E9440335B016C01EDE0F0E05D
:104BA000EC0FFD1FE60DF71D6083718382839383F5
:104BB00020E030E040E050E00E943933882344F4A4
:104BC000D4011C91832D0E949020182BF401108396
:104BD000D4019596ED90FD900D911C919897C6018A
:104BE000B501A60195010E9477359B01AC01C80172
:104BF000B7010E9460327B018C01CB01D801F40126
:104C000085A396A3A7A3B0A7339424E030E0620E57
:104C1000731E420E531E33E0331609F068CFB701FE
:104C2000C8010E9404367B018C01D40195966D93D6
:104C30007D938D939C9398971D968D919D910D904A
:104C4000BC91A02D0097A105B10509F40BC269A57F
:104C50007AA58BA59CA520E030E040E050E00E94C2
:104C6000393388232CF489E996E7A6E9BEE71EC00C
:104C7000222061F069A57AA58BA59CA5A8019701C2
:104C80000E94773569A77AA78BA79CA769A57AA503
:104C90008BA59CA520E030E040E85FE30E9439331B
:104CA000882344F480E090E0A0E8BFE389A79AA7B6
:104CB000ABA7BCA760E070E080E89FE3A801970184
:104CC0000E9440336BA37CA38DA39EA3DE011D969F
:104CD000BE8FAD8FEDE1F5E0FC8FEB8F21E936E083
:104CE0003A8F298F80E090E0A0E0B0E08F8F98A30A
:104CF000A9A3BAA3DE015996B8ABAFA7ED8DFE8D7F
:104D0000E080F18002811381C801B70120E030E02A
:104D100040E050E00E943933882309F47CC0C80188
:104D2000B7012BA13CA14DA15EA10E9477352B01BB
:104D30003C01AD8DBE8D6D937D938D939C931397A8
:104D400060E070E080E89FE3A30192010E9440339D
:104D50005B016C01E894D7F8C601B501E98DFA8DC5
:104D600020813181428153810E9477357B018C0102
:104D700069A57AA58BA59CA5A80197010E94393346
:104D800087FD04C0E9A6FAA60BA71CA7D40191963B
:104D9000BC91BDA7F401F2A1FEA7D40193962C907B
:104DA000939794963C90C601B501E98DFA8D2485C0
:104DB0003585468557850E9477357B018C016DA529
:104DC0007EA5C101A80197010E94393387FD05C066
:104DD000D801C701EDA69EA71D018DA59EA5D101F5
:104DE000F40181A392A3A3A3B4A3C301B201AB8D29
:104DF000BC8D2D913D914D915C910E9477359B0129
:104E0000AC016F8D78A189A19AA10E945F326F8F4A
:104E100078A389A39AA3ED8DFE8D3496FE8FED8F36
:104E20002B8D3C8D2C5F3F4F3C8F2B8F898D9A8D26
:104E300004969A8F898FAFA5B8A9EA17FB0709F0E6
:104E40005DCF90910E0580910D05981751F480E08B
:104E500090E0A0E0B0E0F401818B928BA38BB48B47
:104E600011C06F8D78A189A19AA124EA30E74DE79E
:104E70005FE30E943C35181654F480E090E0A0E017
:104E8000B0E0F401818F928FA38FB48F66C06F8DD5
:104E900078A189A19AA124EA30E74DE75FEB0E944F
:104EA0003C35181644F084EA90E7ADE7BFEB8F8FEE
:104EB00098A3A9A3BAA360E070E080E89FE32F8DD8
:104EC00038A149A15AA10E945F3220E030E040E0C1
:104ED0005FE30E9477350E9404365B016C01D401C8
:104EE00091966D917D918D919C9194972091BA06A8
:104EF0003091BB064091BC065091BD060E947735AB
:104F0000A60195010E9477357B018C0160E070E07D
:104F100080E89FE3A60195010E945F329B01AC01EE
:104F2000C801B7010E9440337B018C0120E030E0D2
:104F300040E050E00E943933882354F40F2EF0E013
:104F4000EF2EF0E0FF2EF0E00F2FF0E01F2FF02DFE
:104F5000F401E18EF28E038F148F69A57AA58BA5DB
:104F60009CA59B01AC010E9477357B018C01D4018B
:104F70005D966D937D938D939C93909759965C90DD
:104F800059975A964C905A975B963C905B975C96D3
:104F90002C90D0902905C0902A05B0902B05A090A8
:104FA0002C052D2D3C2D4B2D5A2D0E94393387FD7C
:104FB00004C06D2C7C2CF50105C0D801C701370158
:104FC000FA2FEB2F652D742D832D922D93014F2FEA
:104FD0005E2F0E94393388232CF4852D942DA32D28
:104FE000B22D0EC0C801B7012D2D3C2D4B2D5A2DD1
:104FF0000E94393387FD06C08D2D9C2DAB2DBA2D17
:105000007C018D01F401E58AF68A078B108FADE1F2
:10501000B5E0FE013D968CE001900D928150E1F7E4
:10502000F401858D968DA78DB0A18093290590936D
:105030002A05A0932B05B0932C05A1E1B5E0FE0154
:1050400031968CE001900D928150E1F780910F052F
:1050500080930E058F5F823109F480E080930F0505
:105060000E94E523E0960FB6F894DEBF0FBECDBFD9
:10507000CF91DF911F910F91FF90EF90DF90CF9034
:10508000BF90AF909F908F907F906F905F904F9068
:105090003F902F9008958CE1E1E1F5E0DF011D9252
:1050A0008A95E9F710920D0510920E0581E0809324
:1050B0000F051092100508956F927F928F929F9224
:1050C000AF92BF92CF92DF92EF92FF920F931F9316
:1050D000CF93DF934C013B015A01FB018081F40126
:1050E000E80FF11DEF0189918D3229F4818121961C
:1050F000CC24C39405C08B3211F481812196CC2439
:10510000E0E070E020E030E040E050E0DD24682F97
:1051100060536A30F8F4EF5FE930C0F47111DA944B
:10512000DA01C901F2E0880F991FAA1FBB1FFA9587
:10513000D1F7280F391F4A1F5B1F220F331F441F4F
:10514000551F260F311D411D511D09C0772339F40C
:10515000D39405C06E3F29F4772319F471E0899147
:10516000D6CFEE2311F480E050C0CA01B9010E94ED
:10517000D9337B018C0120E030E040E050E00E9418
:105180003933882369F42BC0C801B7012AE037ED11
:1051900043E25CE30E9477357B018C01F2E0DF0E95
:1051A0008FEFD8168CF3D81659F4C801B7012DEC3F
:1051B0003CEC4CEC5DE30E9477357B018C010FC029
:1051C000DD2069F0C801B70120E030E040E251E4A1
:1051D0000E9477357B018C01DA941D149CF3CC205E
:1051E00049F0D801C701B058F50180839183A283AB
:1051F000B38305C0F501E082F18202831383882D19
:1052000080958C0FF301808381E0DF91CF911F9116
:105210000F91FF90EF90DF90CF90BF90AF909F9055
:105220008F907F906F90089520EA3FE004C0F901CD
:105230003197F1F701970097D1F70895AF92BF9298
:10524000CF92DF92EF92FF920F931F937B018C011D
:1052500059016A01A80197010E9477357B018C01F1
:10526000C601B501A60195010E9477359B01AC01ED
:10527000C801B7010E9460320E9404361F910F914D
:10528000FF90EF90DF90CF90BF90AF90089508957A
:1052900008950895CF92DF92EF92FF920F931F939C
:1052A000CF93DF936C01C0E0D0E0F601EC0FFD1F5F
:1052B000E080F18002811381C801B70120E030E075
:1052C00040E050E00E943C3518166CF0FE01EB57B0
:1052D000F94FC801B70124A135A146A157A10E94E9
:1052E000393388231CF580912E05883091F49FB7BF
:1052F000F894809130058860809330059FBF0E94AC
:10530000B61380912D058823B1F480912E05882352
:10531000B1F70E9439049FB7F894809131058560F8
:10532000809331059FBF0E94B61305C02496CC30F0
:10533000D10509F0BACFDF91CF911F910F91FF9066
:10534000EF90DF90CF9008958F929F92AF92BF928F
:10535000CF92DF92EF92FF920F931F93DF93CF9341
:10536000CDB7DEB72A970FB6F894DEBF0FBECDBF1C
:105370007B018C01A42E20E030E040E050E00E9450
:10538000393388233CF48DE20E94EA1217FB109512
:1053900017F91095DA2C0CC0C801B70120E030E0F5
:1053A00048EC52E40E9477357B018C018EEFD80ED9
:1053B000E1E0ED1588F3A0FE0AC0C801B70120E0C6
:1053C00030E040E251E40E9477357B018C01C80156
:1053D000B70120E030E040E05FE30E9460320E94CD
:1053E000A8336B017C019E012F5F3F4FF901EA0D4D
:1053F000F11D8EE28083BB2449011EC0BA1409F45A
:10540000B39484010B0D111DC701B6012AE030E0F1
:1054100040E050E00E947036605DF8016083B39414
:10542000C701B6012AE030E040E050E00E9470364B
:10543000C901DA016C017D01C114D104E104F10458
:10544000E9F606C0FC01EB0DF11D2083B39403C007
:10545000CE01019620E3BA14A8F3BA1489F48B2D77
:105460008F5FFE01E80FF11D90E39183B82EB39496
:1054700007C0FE01EB0DF11D80810E94EA12BA9473
:10548000BB20B9F72A960FB6F894DEBF0FBECDBF8A
:10549000CF91DF911F910F91FF90EF90DF90CF9010
:1054A000BF90AF909F908F90089543E00E94A429F1
:1054B00008959B01AC018091C20680FF0AC0CA0119
:1054C000B9012BE832E441E25DE30E94773541E027
:1054D00003C0CA01B90140E00E94A42908959B01BC
:1054E000AC018091C20680FF0AC0CA01B9012BE855
:1054F00032E441E25DE30E94773544E003C0CA0133
:10550000B90143E00E94A42908951F93DF93CF932C
:1055100000D00F92CDB7DEB7282F882321F480E387
:105520000E94EA121EC010E0AE014F5F5F4FFA0109
:10553000E10FF11D822F6AE00E946436905D908336
:105540001F5F822F0E946436282F882381F707C0AF
:10555000FE01E10FF11D80810E94EA12115011231A
:10556000B9F70F900F900F90CF91DF911F91089591
:105570000F931F93DF93CF93CDB7DEB728970FB666
:10558000F894DEBF0FBECDBF982FFE0131969E016D
:10559000275F3F4F892F817081939695E217F3071C
:1055A000C9F78E01085F1F4FF8018081805D0E945E
:1055B000EA12015010400C171D07B1F728960FB6DC
:1055C000F894DEBF0FBECDBFCF91DF911F910F9139
:1055D0000895CF93DF93EC0102C00E94EA12FE010E
:1055E000219684918823C9F7DF91CF910895CF93B5
:1055F000DF93EC0103C021960E94EA128881882380
:10560000D1F7DF91CF9108953D98459A0895982F4D
:105610001092D2068091C20687FD03C080E280937B
:10562000D206992331F08091D20690E289278093A7
:10563000D206089586B180729091D2068927089586
:1056400080913F058130B1F486B180729091D2068D
:10565000891781F010923F05E0E4F5E0DF011E9725
:105660008CE00D9001928150E1F7809130058064CB
:1056700080933005089587E994E00E94E92A08950F
:105680008BED95E00E94E92A08951F93182F88E575
:1056900096E00E94E92A1330A1F0143028F411306A
:1056A00051F01230D9F40AC0153089F0153060F08D
:1056B0001630A1F40FC086E496E00EC082E396E0B7
:1056C0000BC080E296E008C088E196E005C08FE05C
:1056D00096E002C084E096E00E94E92A80E096E02D
:1056E0000E94E92A1F9108951F93182F882319F407
:1056F0008CEB97E05CC084EB97E00E94E92A1730BE
:10570000A9F1183078F4133029F1143030F4113045
:10571000C9F0123009F042C018C0153009F1163036
:1057200010F51BC01B3071F11C3028F4193021F129
:105730001A3028F51EC0153141F1163161F11431CE
:1057400069F526C08CE997E002C08AE897E00E94DC
:10575000E92A2BC088E797E0FACF8EE697E0F7CFEB
:105760008DE597E0F4CF8EE497E0F1CF8DE297E0FE
:10577000EECF84E297E0EBCF89E197E0E8CF86E0D7
:1057800097E0E5CF88EF96E0E2CF82EE96E0DFCFBC
:105790008EEC96E0DCCF8AEB96E0D9CF88EA96E0F3
:1057A0000E94E92A812F0E94852A85EA96E00E94BC
:1057B000E92A1F910895DF92EF92FF920F931F93B2
:1057C000DF93CF93CDB7DEB768970FB6F894DEBFFF
:1057D0000FBECDBFDE011196E2E3F5E08CE0019053
:1057E0000D928150E1F780912E058430F1F08530E3
:1057F00038F48130E9F0813078F0823019F51BC03F
:10580000803181F0813118F48830E1F408C08032B1
:10581000A9F08034B9F403C081E391E011C08CE2B7
:1058200091E00EC086E291E00BC080E291E008C0FA
:1058300089E191E005C082E191E002C08CE091E055
:105840000E94E92A8091B90690E083709070892BBC
:1058500039F0CE010D96BE016F5F7F4F0E945C3024
:105860008091B90680FF1EC085E091E00E94E92A80
:105870006D857E858F8598890E946F2A83E091E0EF
:105880000E94E92A69897A898B899C890E946F2AFA
:1058900083E091E00E94E92A6D897E898F89988D45
:1058A0000E946F2A8091B90681FF50C08CEF90E072
:1058B0000E94E92A8E01035F1F4F80E7E82E85E0F2
:1058C000F82EDD24F7016081718182819381248526
:1058D0003585468557850E9460329B01AC01F801F1
:1058E00060817181828193810E945F32F8016083BF
:1058F000718382839383F2E0DF1679F42091880527
:105900003091890540918A0550918B050E945F3244
:10591000F8016083718382839383F80160817181D0
:10592000828193810E946F2AF2E0DF1621F08AEFD4
:1059300090E00E94E92AD3940C5F1F4F84E090E02E
:10594000E80EF91E93E0D91609F0BCCF8091B90694
:1059500082FF08C084EF90E00E94E92A0E94DA23C7
:105960000E94852A8091B90683FF08C08FEE90E0DF
:105970000E94E92A0E94C9120E94852A8BEE90E0BB
:105980000E94E92A68960FB6F894DEBF0FBECDBF1D
:10599000CF91DF911F910F91FF90EF90DF900895CD
:1059A0000F931F938C018BE391E00E94E92AC801B9
:1059B0000E94F72A87E391E00E94E92A1F910F9144
:1059C0000895FF920F931F93F82E8B0186E691E0C6
:1059D0000E94E92A8F2D0E94852A84E691E00E9488
:1059E000E92AC8010E94F72A81E691E00E94E92A8B
:1059F0001F910F91FF9008958BED91E00E94E92A8D
:105A000080914D058230A1F0833028F4882341F045
:105A10008130B9F408C0833071F0883091F40EC041
:105A200088ED91E002C085ED91E00E94E92A12C064
:105A300082ED91E0FACF8FEC91E0F7CF8BEC91E023
:105A4000F4CF86EC91E00E94E92A80914D058650C2
:105A50000E94852A83EC91E00E94E92A80915305F7
:105A60008A5C0E94852A80915105813041F0813005
:105A700018F0823059F406C08EEB91E005C089EB36
:105A800091E002C084EB91E00E94E92A80914F05E9
:105A9000882319F48FEA91E002C08AEA91E00E941B
:105AA000E92A80915005882319F485EA91E002C023
:105AB00080EA91E00E94E92A80914E05813019F434
:105AC0008BE991E002C086E991E00E94E92A809189
:105AD0005405813041F0813018F0823059F406C00D
